{
  "address": "0x011b5b823663C76dc70411C2be32124372464575",
  "abi": [
    {
      "inputs": [
        {
          "internalType": "string",
          "name": "_name",
          "type": "string"
        },
        {
          "internalType": "string",
          "name": "_symbol",
          "type": "string"
        },
        {
          "internalType": "contract ISuperfluid",
          "name": "host",
          "type": "address"
        },
        {
          "internalType": "contract IConstantFlowAgreementV1",
          "name": "cfa",
          "type": "address"
        },
        {
          "internalType": "contract ISuperToken",
          "name": "acceptedToken",
          "type": "address"
        },
        {
          "internalType": "contract AggregatorV3Interface",
          "name": "priceFeedETH",
          "type": "address"
        }
      ],
      "stateMutability": "nonpayable",
      "type": "constructor"
    },
    {
      "anonymous": false,
      "inputs": [
        {
          "indexed": true,
          "internalType": "address",
          "name": "owner",
          "type": "address"
        },
        {
          "indexed": true,
          "internalType": "address",
          "name": "approved",
          "type": "address"
        },
        {
          "indexed": true,
          "internalType": "uint256",
          "name": "tokenId",
          "type": "uint256"
        }
      ],
      "name": "Approval",
      "type": "event"
    },
    {
      "anonymous": false,
      "inputs": [
        {
          "indexed": true,
          "internalType": "address",
          "name": "owner",
          "type": "address"
        },
        {
          "indexed": true,
          "internalType": "address",
          "name": "operator",
          "type": "address"
        },
        {
          "indexed": false,
          "internalType": "bool",
          "name": "approved",
          "type": "bool"
        }
      ],
      "name": "ApprovalForAll",
      "type": "event"
    },
    {
      "anonymous": false,
      "inputs": [
        {
          "indexed": false,
          "internalType": "uint256",
          "name": "tokenId",
          "type": "uint256"
        },
        {
          "indexed": false,
          "internalType": "address",
          "name": "receiver",
          "type": "address"
        },
        {
          "indexed": false,
          "internalType": "int96",
          "name": "flowRate",
          "type": "int96"
        }
      ],
      "name": "NFTIssued",
      "type": "event"
    },
    {
      "anonymous": false,
      "inputs": [
        {
          "indexed": true,
          "internalType": "address",
          "name": "from",
          "type": "address"
        },
        {
          "indexed": true,
          "internalType": "address",
          "name": "to",
          "type": "address"
        },
        {
          "indexed": true,
          "internalType": "uint256",
          "name": "tokenId",
          "type": "uint256"
        }
      ],
      "name": "Transfer",
      "type": "event"
    },
    {
      "inputs": [],
      "name": "PROTOCOL_APY",
      "outputs": [
        {
          "internalType": "int8",
          "name": "",
          "type": "int8"
        }
      ],
      "stateMutability": "view",
      "type": "function"
    },
    {
      "inputs": [],
      "name": "_rewardToken",
      "outputs": [
        {
          "internalType": "contract ISuperToken",
          "name": "",
          "type": "address"
        }
      ],
      "stateMutability": "view",
      "type": "function"
    },
    {
      "inputs": [
        {
          "internalType": "address",
          "name": "to",
          "type": "address"
        },
        {
          "internalType": "uint256",
          "name": "tokenId",
          "type": "uint256"
        }
      ],
      "name": "approve",
      "outputs": [],
      "stateMutability": "nonpayable",
      "type": "function"
    },
    {
      "inputs": [
        {
          "internalType": "address",
          "name": "owner",
          "type": "address"
        }
      ],
      "name": "balanceOf",
      "outputs": [
        {
          "internalType": "uint256",
          "name": "",
          "type": "uint256"
        }
      ],
      "stateMutability": "view",
      "type": "function"
    },
    {
      "inputs": [
        {
          "internalType": "uint256",
          "name": "tokenId",
          "type": "uint256"
        }
      ],
      "name": "burnNFT",
      "outputs": [],
      "stateMutability": "nonpayable",
      "type": "function"
    },
    {
      "inputs": [
        {
          "internalType": "uint256",
          "name": "",
          "type": "uint256"
        }
      ],
      "name": "flowRates",
      "outputs": [
        {
          "internalType": "int96",
          "name": "",
          "type": "int96"
        }
      ],
      "stateMutability": "view",
      "type": "function"
    },
    {
      "inputs": [
        {
          "internalType": "uint256",
          "name": "tokenId",
          "type": "uint256"
        }
      ],
      "name": "getApproved",
      "outputs": [
        {
          "internalType": "address",
          "name": "",
          "type": "address"
        }
      ],
      "stateMutability": "view",
      "type": "function"
    },
    {
      "inputs": [
        {
          "internalType": "uint256",
          "name": "",
          "type": "uint256"
        }
      ],
      "name": "initFunds",
      "outputs": [
        {
          "internalType": "uint256",
          "name": "",
          "type": "uint256"
        }
      ],
      "stateMutability": "view",
      "type": "function"
    },
    {
      "inputs": [
        {
          "internalType": "address",
          "name": "owner",
          "type": "address"
        },
        {
          "internalType": "address",
          "name": "operator",
          "type": "address"
        }
      ],
      "name": "isApprovedForAll",
      "outputs": [
        {
          "internalType": "bool",
          "name": "",
          "type": "bool"
        }
      ],
      "stateMutability": "view",
      "type": "function"
    },
    {
      "inputs": [],
      "name": "mintNFT",
      "outputs": [],
      "stateMutability": "payable",
      "type": "function"
    },
    {
      "inputs": [],
      "name": "name",
      "outputs": [
        {
          "internalType": "string",
          "name": "",
          "type": "string"
        }
      ],
      "stateMutability": "view",
      "type": "function"
    },
    {
      "inputs": [
        {
          "internalType": "uint256",
          "name": "tokenId",
          "type": "uint256"
        }
      ],
      "name": "ownerOf",
      "outputs": [
        {
          "internalType": "address",
          "name": "",
          "type": "address"
        }
      ],
      "stateMutability": "view",
      "type": "function"
    },
    {
      "inputs": [
        {
          "internalType": "address",
          "name": "from",
          "type": "address"
        },
        {
          "internalType": "address",
          "name": "to",
          "type": "address"
        },
        {
          "internalType": "uint256",
          "name": "tokenId",
          "type": "uint256"
        }
      ],
      "name": "safeTransferFrom",
      "outputs": [],
      "stateMutability": "nonpayable",
      "type": "function"
    },
    {
      "inputs": [
        {
          "internalType": "address",
          "name": "from",
          "type": "address"
        },
        {
          "internalType": "address",
          "name": "to",
          "type": "address"
        },
        {
          "internalType": "uint256",
          "name": "tokenId",
          "type": "uint256"
        },
        {
          "internalType": "bytes",
          "name": "_data",
          "type": "bytes"
        }
      ],
      "name": "safeTransferFrom",
      "outputs": [],
      "stateMutability": "nonpayable",
      "type": "function"
    },
    {
      "inputs": [
        {
          "internalType": "address",
          "name": "operator",
          "type": "address"
        },
        {
          "internalType": "bool",
          "name": "approved",
          "type": "bool"
        }
      ],
      "name": "setApprovalForAll",
      "outputs": [],
      "stateMutability": "nonpayable",
      "type": "function"
    },
    {
      "inputs": [
        {
          "internalType": "bytes4",
          "name": "interfaceId",
          "type": "bytes4"
        }
      ],
      "name": "supportsInterface",
      "outputs": [
        {
          "internalType": "bool",
          "name": "",
          "type": "bool"
        }
      ],
      "stateMutability": "view",
      "type": "function"
    },
    {
      "inputs": [],
      "name": "symbol",
      "outputs": [
        {
          "internalType": "string",
          "name": "",
          "type": "string"
        }
      ],
      "stateMutability": "view",
      "type": "function"
    },
    {
      "inputs": [],
      "name": "tokenCounter",
      "outputs": [
        {
          "internalType": "uint256",
          "name": "",
          "type": "uint256"
        }
      ],
      "stateMutability": "view",
      "type": "function"
    },
    {
      "inputs": [
        {
          "internalType": "uint256",
          "name": "tokenId",
          "type": "uint256"
        }
      ],
      "name": "tokenURI",
      "outputs": [
        {
          "internalType": "string",
          "name": "",
          "type": "string"
        }
      ],
      "stateMutability": "view",
      "type": "function"
    },
    {
      "inputs": [
        {
          "internalType": "address",
          "name": "from",
          "type": "address"
        },
        {
          "internalType": "address",
          "name": "to",
          "type": "address"
        },
        {
          "internalType": "uint256",
          "name": "tokenId",
          "type": "uint256"
        }
      ],
      "name": "transferFrom",
      "outputs": [],
      "stateMutability": "nonpayable",
      "type": "function"
    }
  ],
  "transactionHash": "0x1b497f3738aa7c2d9056607d9c49c2902d6ff8b195cec22d4b1778e1b385f43b",
  "args": [
    "SuperFaaSToken",
    "SFST",
    "0xF0d7d1D47109bA426B9D8A3Cde1941327af1eea3",
    "0xECa8056809e7e8db04A8fF6e4E82cD889a46FE2F",
    "0xe3cb950cb164a31c66e32c320a800d477019dcff",
    "0x9326BFA02ADD2366b30bacB125260Af641031331"
  ],
  "numDeployments": 1,
  "solcInputHash": "2d03b48e280364d0e88dcef210f43a95",
  "bytecode": "0x60806040523480156200001157600080fd5b50604051620027ea380380620027ea833981016040819052620000349162000310565b8551869086906200004d906000906020850190620001b7565b50805162000063906001906020840190620001b7565b5050600680546001600160a01b038088166001600160a01b03199283161790925560078054878416908316179055600880548684169083161790556009805492851692909116821790556000600c556040805163313ce56760e01b8152905191925063313ce567916004808301926020929190829003018186803b158015620000eb57600080fd5b505afa15801562000100573d6000803e3d6000fd5b505050506040513d601f19601f82011682018060405250810190620001269190620003cd565b6200013390600a62000440565b600d556006546001600160a01b03166200015d57634e487b7160e01b600052600160045260246000fd5b6007546001600160a01b03166200018457634e487b7160e01b600052600160045260246000fd5b6008546001600160a01b0316620001ab57634e487b7160e01b600052600160045260246000fd5b50505050505062000583565b828054620001c59062000501565b90600052602060002090601f016020900481019282620001e9576000855562000234565b82601f106200020457805160ff191683800117855562000234565b8280016001018555821562000234579182015b828111156200023457825182559160200191906001019062000217565b506200024292915062000246565b5090565b5b8082111562000242576000815560010162000247565b600082601f8301126200026e578081fd5b81516001600160401b03808211156200028b576200028b62000554565b604051601f8301601f19908116603f01168101908282118183101715620002b657620002b662000554565b81604052838152602092508683858801011115620002d2578485fd5b8491505b83821015620002f55785820183015181830184015290820190620002d6565b838211156200030657848385830101525b9695505050505050565b60008060008060008060c0878903121562000329578182fd5b86516001600160401b038082111562000340578384fd5b6200034e8a838b016200025d565b9750602089015191508082111562000364578384fd5b506200037389828a016200025d565b955050604087015162000386816200056a565b606088015190945062000399816200056a565b6080880151909350620003ac816200056a565b60a0880151909250620003bf816200056a565b809150509295509295509295565b600060208284031215620003df578081fd5b815160ff81168114620003f0578182fd5b9392505050565b600181815b80851115620004385781600019048211156200041c576200041c6200053e565b808516156200042a57918102915b93841c9390800290620003fc565b509250929050565b6000620003f060ff8416836000826200045c57506001620004fb565b816200046b57506000620004fb565b81600181146200048457600281146200048f57620004af565b6001915050620004fb565b60ff841115620004a357620004a36200053e565b50506001821b620004fb565b5060208310610133831016604e8410600b8410161715620004d4575081810a620004fb565b620004e08383620003f7565b8060001904821115620004f757620004f76200053e565b0290505b92915050565b600181811c908216806200051657607f821691505b602082108114156200053857634e487b7160e01b600052602260045260246000fd5b50919050565b634e487b7160e01b600052601160045260246000fd5b634e487b7160e01b600052604160045260246000fd5b6001600160a01b03811681146200058057600080fd5b50565b61225780620005936000396000f3fe60806040526004361061011f5760003560e01c806379bcb8df116100a0578063b88d4fde11610064578063b88d4fde14610350578063c87b56dd14610370578063d082e38114610390578063e985e9c5146103a6578063f8c8e8a4146103ef57600080fd5b806379bcb8df1461028b5780637d5ad2ec146102ce57806395d89b41146102fb578063a22cb46514610310578063b59c6e0e1461033057600080fd5b806323b872dd116100e757806323b872dd146101dd5780632890e0d7146101fd57806342842e0e1461021d5780636352211e1461023d57806370a082311461025d57600080fd5b806301ffc9a71461012457806306fdde0314610159578063081812fc1461017b578063095ea7b3146101b357806314f710fe146101d5575b600080fd5b34801561013057600080fd5b5061014461013f366004611be5565b610417565b60405190151581526020015b60405180910390f35b34801561016557600080fd5b5061016e610469565b6040516101509190611e82565b34801561018757600080fd5b5061019b610196366004611c90565b6104fb565b6040516001600160a01b039091168152602001610150565b3480156101bf57600080fd5b506101d36101ce366004611ba0565b610595565b005b6101d36106ab565b3480156101e957600080fd5b506101d36101f8366004611a8c565b610783565b34801561020957600080fd5b506101d3610218366004611c90565b6107b4565b34801561022957600080fd5b506101d3610238366004611a8c565b61087c565b34801561024957600080fd5b5061019b610258366004611c90565b610897565b34801561026957600080fd5b5061027d610278366004611a40565b61090e565b604051908152602001610150565b34801561029757600080fd5b506102bb6102a6366004611c90565b600a60205260009081526040902054600b0b81565b604051600b9190910b8152602001610150565b3480156102da57600080fd5b5061027d6102e9366004611c90565b600b6020526000908152604090205481565b34801561030757600080fd5b5061016e610995565b34801561031c57600080fd5b506101d361032b366004611b6a565b6109a4565b34801561033c57600080fd5b5060085461019b906001600160a01b031681565b34801561035c57600080fd5b506101d361036b366004611ac7565b6109af565b34801561037c57600080fd5b5061016e61038b366004611c90565b6109e7565b34801561039c57600080fd5b5061027d600c5481565b3480156103b257600080fd5b506101446103c1366004611a5a565b6001600160a01b03918216600090815260056020908152604080832093909416825291909152205460ff1690565b3480156103fb57600080fd5b50610404600a81565b60405160009190910b8152602001610150565b60006001600160e01b031982166380ac58cd60e01b148061044857506001600160e01b03198216635b5e139f60e01b145b8061046357506301ffc9a760e01b6001600160e01b03198316145b92915050565b6060600080546104789061214e565b80601f01602080910402602001604051908101604052809291908181526020018280546104a49061214e565b80156104f15780601f106104c6576101008083540402835291602001916104f1565b820191906000526020600020905b8154815290600101906020018083116104d457829003601f168201915b5050505050905090565b6000818152600260205260408120546001600160a01b03166105795760405162461bcd60e51b815260206004820152602c60248201527f4552433732313a20617070726f76656420717565727920666f72206e6f6e657860448201526b34b9ba32b73a103a37b5b2b760a11b60648201526084015b60405180910390fd5b506000908152600460205260409020546001600160a01b031690565b60006105a082610897565b9050806001600160a01b0316836001600160a01b0316141561060e5760405162461bcd60e51b815260206004820152602160248201527f4552433732313a20617070726f76616c20746f2063757272656e74206f776e656044820152603960f91b6064820152608401610570565b336001600160a01b038216148061062a575061062a81336103c1565b61069c5760405162461bcd60e51b815260206004820152603860248201527f4552433732313a20617070726f76652063616c6c6572206973206e6f74206f7760448201527f6e6572206e6f7220617070726f76656420666f7220616c6c00000000000000006064820152608401610570565b6106a68383610acf565b505050565b60095460408051633fabe5a360e21b815290516000926001600160a01b03169163feaf968c9160048083019260a0929190829003018186803b1580156106f057600080fd5b505afa158015610704573d6000803e3d6000fd5b505050506040513d601f19601f820116820180604052508101906107289190611cea565b50505091505060006301e13380606483600a60000b600d543461074b9190612039565b6107559190612039565b61075f9190611ff7565b6107699190611ff7565b6107739190611ff7565b905061077f3382610b3d565b5050565b61078d3382610cad565b6107a95760405162461bcd60e51b815260040161057090611ee7565b6106a6838383610da4565b60006107bf82610897565b90506001600160a01b038116331461080d5760405162461bcd60e51b81526020600482015260116024820152703737ba10313ab93710313c9037bbb732b960791b6044820152606401610570565b61081682610f4b565b6000828152600a6020526040902054610833908290600b0b610ff2565b6000828152600a6020908152604080832080546bffffffffffffffffffffffff19169055600b90915290205461086a9033906110d7565b506000908152600b6020526040812055565b6106a6838383604051806020016040528060008152506109af565b6000818152600260205260408120546001600160a01b0316806104635760405162461bcd60e51b815260206004820152602960248201527f4552433732313a206f776e657220717565727920666f72206e6f6e657869737460448201526832b73a103a37b5b2b760b91b6064820152608401610570565b60006001600160a01b0382166109795760405162461bcd60e51b815260206004820152602a60248201527f4552433732313a2062616c616e636520717565727920666f7220746865207a65604482015269726f206164647265737360b01b6064820152608401610570565b506001600160a01b031660009081526003602052604090205490565b6060600180546104789061214e565b61077f3383836111f0565b6109b93383610cad565b6109d55760405162461bcd60e51b815260040161057090611ee7565b6109e1848484846112bf565b50505050565b6000818152600260205260409020546060906001600160a01b0316610a665760405162461bcd60e51b815260206004820152602f60248201527f4552433732314d657461646174613a2055524920717565727920666f72206e6f60448201526e3732bc34b9ba32b73a103a37b5b2b760891b6064820152608401610570565b6000610a7d60408051602081019091526000815290565b90506000815111610a9d5760405180602001604052806000815250610ac8565b80610aa7846112f2565b604051602001610ab8929190611d65565b6040516020818303038152906040525b9392505050565b600081815260046020526040902080546001600160a01b0319166001600160a01b0384169081179091558190610b0482610897565b6001600160a01b03167f8c5be1e5ebec7d5bd14f71427d1e84f3dd0314c0f7b2291e5b200ac8c7c3b92560405160405180910390a45050565b6001600160a01b038216301415610b8f5760405162461bcd60e51b8152602060048201526016602482015275497373756520746f2061206e6577206164647265737360501b6044820152606401610570565b600081600b0b13610be25760405162461bcd60e51b815260206004820152601a60248201527f666c6f7752617465206d75737420626520706f736974697665210000000000006044820152606401610570565b600c80546000908152600a602081815260408084208054600b88810b6bffffffffffffffffffffffff166bffffffffffffffffffffffff1990921691909117909155855485528083528185203490559454808552928252928390205483519283526001600160a01b03871691830191909152830b90920b908201527f6e89a354929848553af9a2898855fe0486bb36807f1512041a8fcf8e19f4a5849060600160405180910390a1610c9682600c5461140c565b600c60008154610ca590612189565b909155505050565b6000818152600260205260408120546001600160a01b0316610d265760405162461bcd60e51b815260206004820152602c60248201527f4552433732313a206f70657261746f7220717565727920666f72206e6f6e657860448201526b34b9ba32b73a103a37b5b2b760a11b6064820152608401610570565b6000610d3183610897565b9050806001600160a01b0316846001600160a01b03161480610d6c5750836001600160a01b0316610d61846104fb565b6001600160a01b0316145b80610d9c57506001600160a01b0380821660009081526005602090815260408083209388168352929052205460ff165b949350505050565b826001600160a01b0316610db782610897565b6001600160a01b031614610e1b5760405162461bcd60e51b815260206004820152602560248201527f4552433732313a207472616e736665722066726f6d20696e636f72726563742060448201526437bbb732b960d91b6064820152608401610570565b6001600160a01b038216610e7d5760405162461bcd60e51b8152602060048201526024808201527f4552433732313a207472616e7366657220746f20746865207a65726f206164646044820152637265737360e01b6064820152608401610570565b610e8883838361155a565b610e93600082610acf565b6001600160a01b0383166000908152600360205260408120805460019290610ebc90849061210b565b90915550506001600160a01b0382166000908152600360205260408120805460019290610eea908490611fdf565b909155505060008181526002602052604080822080546001600160a01b0319166001600160a01b0386811691821790925591518493918716917fddf252ad1be2c89b69c2b068fc378daa952ba7f163c4a11628f55a4df523b3ef91a4505050565b6000610f5682610897565b9050610f648160008461155a565b610f6f600083610acf565b6001600160a01b0381166000908152600360205260408120805460019290610f9890849061210b565b909155505060008281526002602052604080822080546001600160a01b0319169055518391906001600160a01b038416907fddf252ad1be2c89b69c2b068fc378daa952ba7f163c4a11628f55a4df523b3ef908390a45050565b6001600160a01b038216301415611007575050565b600754600854604051631cd43d1160e31b81526001600160a01b0391821660048201523060248201528482166044820152600092919091169063e6a1e8889060640160806040518083038186803b15801561106157600080fd5b505afa158015611075573d6000803e3d6000fd5b505050506040513d601f19601f820116820180604052508101906110999190611ca8565b505091505081600b0b81600b0b14156110b6576106a63084611671565b81600b0b81600b0b13156106a6576106a6836110d284846120bc565b611758565b804710156111275760405162461bcd60e51b815260206004820152601d60248201527f416464726573733a20696e73756666696369656e742062616c616e63650000006044820152606401610570565b6000826001600160a01b03168260405160006040518083038185875af1925050503d8060008114611174576040519150601f19603f3d011682016040523d82523d6000602084013e611179565b606091505b50509050806106a65760405162461bcd60e51b815260206004820152603a60248201527f416464726573733a20756e61626c6520746f2073656e642076616c75652c207260448201527f6563697069656e74206d617920686176652072657665727465640000000000006064820152608401610570565b816001600160a01b0316836001600160a01b031614156112525760405162461bcd60e51b815260206004820152601960248201527f4552433732313a20617070726f766520746f2063616c6c6572000000000000006044820152606401610570565b6001600160a01b03838116600081815260056020908152604080832094871680845294825291829020805460ff191686151590811790915591519182527f17307eab39ab6107e8899845ad3d59bd9653f200f220920489ca2b5937696c31910160405180910390a3505050565b6112ca848484610da4565b6112d6848484846117ea565b6109e15760405162461bcd60e51b815260040161057090611e95565b6060816113165750506040805180820190915260018152600360fc1b602082015290565b8160005b8115611340578061132a81612189565b91506113399050600a83612025565b915061131a565b60008167ffffffffffffffff81111561136957634e487b7160e01b600052604160045260246000fd5b6040519080825280601f01601f191660200182016040528015611393576020820181803683370190505b5090505b8415610d9c576113a860018361210b565b91506113b5600a866121a4565b6113c0906030611fdf565b60f81b8183815181106113e357634e487b7160e01b600052603260045260246000fd5b60200101906001600160f81b031916908160001a905350611405600a86612025565b9450611397565b6001600160a01b0382166114625760405162461bcd60e51b815260206004820181905260248201527f4552433732313a206d696e7420746f20746865207a65726f20616464726573736044820152606401610570565b6000818152600260205260409020546001600160a01b0316156114c75760405162461bcd60e51b815260206004820152601c60248201527f4552433732313a20746f6b656e20616c7265616479206d696e746564000000006044820152606401610570565b6114d36000838361155a565b6001600160a01b03821660009081526003602052604081208054600192906114fc908490611fdf565b909155505060008181526002602052604080822080546001600160a01b0319166001600160a01b03861690811790915590518392907fddf252ad1be2c89b69c2b068fc378daa952ba7f163c4a11628f55a4df523b3ef908290a45050565b600654604051631e51d6a760e11b81526001600160a01b03848116600483015290911690633ca3ad4e9060240160206040518083038186803b15801561159f57600080fd5b505afa1580156115b3573d6000803e3d6000fd5b505050506040513d601f19601f820116820180604052508101906115d79190611bc9565b15806115eb57506001600160a01b03821630145b6116375760405162461bcd60e51b815260206004820152601e60248201527f52656365697665722063616e206e6f74206265206120737570657241707000006044820152606401610570565b6000818152600a6020526040902054611654908490600b0b610ff2565b6000818152600a60205260409020546106a6908390600b0b6118f7565b6006546007546008546040805160008152602081019091526001600160a01b03938416936339255d5b93811692635a5999e360e11b926116bc92909116908890889060448101611e18565b60408051601f198184030181529181526020820180516001600160e01b03166001600160e01b03199485161790525160e085901b90921682526117029291600401611dd1565b600060405180830381600087803b15801561171c57600080fd5b505af1158015611730573d6000803e3d6000fd5b505050506040513d6000823e601f3d908101601f191682016040526106a69190810190611c1d565b6001600160a01b03821630148061177657506001600160a01b038216155b1561177f575050565b6006546007546008546001600160a01b03928316926339255d5b928116916328104d3160e11b9116868660005b6040519080825280601f01601f1916602001820160405280156117d6576020820181803683370190505b506040516024016116bc9493929190611e4c565b60006001600160a01b0384163b156118ec57604051630a85bd0160e11b81526001600160a01b0385169063150b7a029061182e903390899088908890600401611d94565b602060405180830381600087803b15801561184857600080fd5b505af1925050508015611878575060408051601f3d908101601f1916820190925261187591810190611c01565b60015b6118d2573d8080156118a6576040519150601f19603f3d011682016040523d82523d6000602084013e6118ab565b606091505b5080516118ca5760405162461bcd60e51b815260040161057090611e95565b805181602001fd5b6001600160e01b031916630a85bd0160e11b149050610d9c565b506001949350505050565b600754600854604051631cd43d1160e31b81526001600160a01b0391821660048201523060248201528482166044820152600092919091169063e6a1e8889060640160806040518083038186803b15801561195157600080fd5b505afa158015611965573d6000803e3d6000fd5b505050506040513d601f19601f820116820180604052508101906119899190611ca8565b505091505080600b0b600014156119a4576106a683836119b2565b6106a6836110d28484611f91565b6001600160a01b0382163014806119d057506001600160a01b038216155b156119d9575050565b6006546007546008546001600160a01b03928316926339255d5b9281169163317e182f60e11b9116868660006117ac565b80356001600160a01b0381168114611a2157600080fd5b919050565b805169ffffffffffffffffffff81168114611a2157600080fd5b600060208284031215611a51578081fd5b610ac882611a0a565b60008060408385031215611a6c578081fd5b611a7583611a0a565b9150611a8360208401611a0a565b90509250929050565b600080600060608486031215611aa0578081fd5b611aa984611a0a565b9250611ab760208501611a0a565b9150604084013590509250925092565b60008060008060808587031215611adc578081fd5b611ae585611a0a565b9350611af360208601611a0a565b925060408501359150606085013567ffffffffffffffff811115611b15578182fd5b8501601f81018713611b25578182fd5b8035611b38611b3382611f69565b611f38565b818152886020838501011115611b4c578384fd5b81602084016020830137908101602001929092525092959194509250565b60008060408385031215611b7c578182fd5b611b8583611a0a565b91506020830135611b95816121fa565b809150509250929050565b60008060408385031215611bb2578182fd5b611bbb83611a0a565b946020939093013593505050565b600060208284031215611bda578081fd5b8151610ac8816121fa565b600060208284031215611bf6578081fd5b8135610ac88161220b565b600060208284031215611c12578081fd5b8151610ac88161220b565b600060208284031215611c2e578081fd5b815167ffffffffffffffff811115611c44578182fd5b8201601f81018413611c54578182fd5b8051611c62611b3382611f69565b818152856020838501011115611c76578384fd5b611c87826020830160208601612122565b95945050505050565b600060208284031215611ca1578081fd5b5035919050565b60008060008060808587031215611cbd578182fd5b84519350602085015180600b0b8114611cd4578283fd5b6040860151606090960151949790965092505050565b600080600080600060a08688031215611d01578283fd5b611d0a86611a26565b9450602086015193506040860151925060608601519150611d2d60808701611a26565b90509295509295909350565b60008151808452611d51816020860160208601612122565b601f01601f19169290920160200192915050565b60008351611d77818460208801612122565b835190830190611d8b818360208801612122565b01949350505050565b6001600160a01b0385811682528416602082015260408101839052608060608201819052600090611dc790830184611d39565b9695505050505050565b6001600160a01b0383168152606060208201819052600090611df590830184611d39565b8281036040938401526002815261060f60f31b6020820152919091019392505050565b6001600160a01b038581168252848116602083015283166040820152608060608201819052600090611dc790830184611d39565b6001600160a01b03858116825284166020820152600b83900b6040820152608060608201819052600090611dc790830184611d39565b602081526000610ac86020830184611d39565b60208082526032908201527f4552433732313a207472616e7366657220746f206e6f6e20455243373231526560408201527131b2b4bb32b91034b6b83632b6b2b73a32b960711b606082015260800190565b60208082526031908201527f4552433732313a207472616e736665722063616c6c6572206973206e6f74206f6040820152701ddb995c881b9bdc88185c1c1c9bdd9959607a1b606082015260800190565b604051601f8201601f1916810167ffffffffffffffff81118282101715611f6157611f616121e4565b604052919050565b600067ffffffffffffffff821115611f8357611f836121e4565b50601f01601f191660200190565b600081600b0b83600b0b8282128260016001605f1b0303821381151615611fba57611fba6121b8565b8260016001605f1b0319038212811615611fd657611fd66121b8565b50019392505050565b60008219821115611ff257611ff26121b8565b500190565b600082612006576120066121ce565b600160ff1b821460001984141615612020576120206121b8565b500590565b600082612034576120346121ce565b500490565b60006001600160ff1b038184138284138082168684048611161561205f5761205f6121b8565b600160ff1b8487128281168783058912161561207d5761207d6121b8565b858712925087820587128484161615612098576120986121b8565b878505871281841616156120ae576120ae6121b8565b505050929093029392505050565b600081600b0b83600b0b8281128160016001605f1b0319018312811516156120e6576120e66121b8565b8160016001605f1b03018313811615612101576121016121b8565b5090039392505050565b60008282101561211d5761211d6121b8565b500390565b60005b8381101561213d578181015183820152602001612125565b838111156109e15750506000910152565b600181811c9082168061216257607f821691505b6020821081141561218357634e487b7160e01b600052602260045260246000fd5b50919050565b600060001982141561219d5761219d6121b8565b5060010190565b6000826121b3576121b36121ce565b500690565b634e487b7160e01b600052601160045260246000fd5b634e487b7160e01b600052601260045260246000fd5b634e487b7160e01b600052604160045260246000fd5b801515811461220857600080fd5b50565b6001600160e01b03198116811461220857600080fdfea2646970667358221220274915afe30cb38ebc993203ae8875eec4f3cad810dc67187d09aa73a5423e0d64736f6c63430008040033",
  "devdoc": {
    "kind": "dev",
    "methods": {
      "approve(address,uint256)": {
        "details": "See {IERC721-approve}."
      },
      "balanceOf(address)": {
        "details": "See {IERC721-balanceOf}."
      },
      "constructor": {
        "details": "Setup ERC721 and Superfluid system"
      },
      "getApproved(uint256)": {
        "details": "See {IERC721-getApproved}."
      },
      "isApprovedForAll(address,address)": {
        "details": "See {IERC721-isApprovedForAll}."
      },
      "name()": {
        "details": "See {IERC721Metadata-name}."
      },
      "ownerOf(uint256)": {
        "details": "See {IERC721-ownerOf}."
      },
      "safeTransferFrom(address,address,uint256)": {
        "details": "See {IERC721-safeTransferFrom}."
      },
      "safeTransferFrom(address,address,uint256,bytes)": {
        "details": "See {IERC721-safeTransferFrom}."
      },
      "setApprovalForAll(address,bool)": {
        "details": "See {IERC721-setApprovalForAll}."
      },
      "supportsInterface(bytes4)": {
        "details": "See {IERC165-supportsInterface}."
      },
      "symbol()": {
        "details": "See {IERC721Metadata-symbol}."
      },
      "tokenURI(uint256)": {
        "details": "See {IERC721Metadata-tokenURI}."
      },
      "transferFrom(address,address,uint256)": {
        "details": "See {IERC721-transferFrom}."
      }
    },
    "stateVariables": {
      "ONE_YEAR": {
        "details": "One year in sec"
      },
      "PROTOCOL_APY": {
        "details": "Protocol APY"
      },
      "_cfa": {
        "details": "Constant flow agreement class address"
      },
      "_host": {
        "details": "Superfluid host"
      },
      "_priceFeedDivisor": {
        "details": "Price feed divisor"
      },
      "_priceFeedETH": {
        "details": "ETH chainlink price feed"
      },
      "_rewardToken": {
        "details": "Reward token"
      },
      "flowRates": {
        "details": "Map token ID to flow rate"
      },
      "initFunds": {
        "details": "Map token ID to initial fund"
      },
      "tokenCounter": {
        "details": "NFT token counter"
      }
    },
    "title": "SuperFaaS - Deposit",
    "version": 1
  },
  "userdoc": {
    "kind": "user",
    "methods": {
      "burnNFT(uint256)": {
        "notice": "Burn NFT and redeem fund"
      },
      "mintNFT()": {
        "notice": "Mint an NFT as a proof of incoming flow"
      }
    },
    "notice": "Deposit fund and mint NFT as proof",
    "version": 1
  },
  "storageLayout": {
    "storage": [
      {
        "astId": 149,
        "contract": "contracts/SuperFarmDAO.sol:SuperFarmDAO",
        "label": "_name",
        "offset": 0,
        "slot": "0",
        "type": "t_string_storage"
      },
      {
        "astId": 151,
        "contract": "contracts/SuperFarmDAO.sol:SuperFarmDAO",
        "label": "_symbol",
        "offset": 0,
        "slot": "1",
        "type": "t_string_storage"
      },
      {
        "astId": 155,
        "contract": "contracts/SuperFarmDAO.sol:SuperFarmDAO",
        "label": "_owners",
        "offset": 0,
        "slot": "2",
        "type": "t_mapping(t_uint256,t_address)"
      },
      {
        "astId": 159,
        "contract": "contracts/SuperFarmDAO.sol:SuperFarmDAO",
        "label": "_balances",
        "offset": 0,
        "slot": "3",
        "type": "t_mapping(t_address,t_uint256)"
      },
      {
        "astId": 163,
        "contract": "contracts/SuperFarmDAO.sol:SuperFarmDAO",
        "label": "_tokenApprovals",
        "offset": 0,
        "slot": "4",
        "type": "t_mapping(t_uint256,t_address)"
      },
      {
        "astId": 169,
        "contract": "contracts/SuperFarmDAO.sol:SuperFarmDAO",
        "label": "_operatorApprovals",
        "offset": 0,
        "slot": "5",
        "type": "t_mapping(t_address,t_mapping(t_address,t_bool))"
      },
      {
        "astId": 3962,
        "contract": "contracts/SuperFarmDAO.sol:SuperFarmDAO",
        "label": "_host",
        "offset": 0,
        "slot": "6",
        "type": "t_contract(ISuperfluid)3511"
      },
      {
        "astId": 3966,
        "contract": "contracts/SuperFarmDAO.sol:SuperFarmDAO",
        "label": "_cfa",
        "offset": 0,
        "slot": "7",
        "type": "t_contract(IConstantFlowAgreementV1)2062"
      },
      {
        "astId": 3970,
        "contract": "contracts/SuperFarmDAO.sol:SuperFarmDAO",
        "label": "_rewardToken",
        "offset": 0,
        "slot": "8",
        "type": "t_contract(ISuperToken)2955"
      },
      {
        "astId": 3974,
        "contract": "contracts/SuperFarmDAO.sol:SuperFarmDAO",
        "label": "_priceFeedETH",
        "offset": 0,
        "slot": "9",
        "type": "t_contract(AggregatorV3Interface)45"
      },
      {
        "astId": 3979,
        "contract": "contracts/SuperFarmDAO.sol:SuperFarmDAO",
        "label": "flowRates",
        "offset": 0,
        "slot": "10",
        "type": "t_mapping(t_uint256,t_int96)"
      },
      {
        "astId": 3984,
        "contract": "contracts/SuperFarmDAO.sol:SuperFarmDAO",
        "label": "initFunds",
        "offset": 0,
        "slot": "11",
        "type": "t_mapping(t_uint256,t_uint256)"
      },
      {
        "astId": 3987,
        "contract": "contracts/SuperFarmDAO.sol:SuperFarmDAO",
        "label": "tokenCounter",
        "offset": 0,
        "slot": "12",
        "type": "t_uint256"
      },
      {
        "astId": 3990,
        "contract": "contracts/SuperFarmDAO.sol:SuperFarmDAO",
        "label": "_priceFeedDivisor",
        "offset": 0,
        "slot": "13",
        "type": "t_int256"
      }
    ],
    "types": {
      "t_address": {
        "encoding": "inplace",
        "label": "address",
        "numberOfBytes": "20"
      },
      "t_bool": {
        "encoding": "inplace",
        "label": "bool",
        "numberOfBytes": "1"
      },
      "t_contract(AggregatorV3Interface)45": {
        "encoding": "inplace",
        "label": "contract AggregatorV3Interface",
        "numberOfBytes": "20"
      },
      "t_contract(IConstantFlowAgreementV1)2062": {
        "encoding": "inplace",
        "label": "contract IConstantFlowAgreementV1",
        "numberOfBytes": "20"
      },
      "t_contract(ISuperToken)2955": {
        "encoding": "inplace",
        "label": "contract ISuperToken",
        "numberOfBytes": "20"
      },
      "t_contract(ISuperfluid)3511": {
        "encoding": "inplace",
        "label": "contract ISuperfluid",
        "numberOfBytes": "20"
      },
      "t_int256": {
        "encoding": "inplace",
        "label": "int256",
        "numberOfBytes": "32"
      },
      "t_int96": {
        "encoding": "inplace",
        "label": "int96",
        "numberOfBytes": "12"
      },
      "t_mapping(t_address,t_bool)": {
        "encoding": "mapping",
        "key": "t_address",
        "label": "mapping(address => bool)",
        "numberOfBytes": "32",
        "value": "t_bool"
      },
      "t_mapping(t_address,t_mapping(t_address,t_bool))": {
        "encoding": "mapping",
        "key": "t_address",
        "label": "mapping(address => mapping(address => bool))",
        "numberOfBytes": "32",
        "value": "t_mapping(t_address,t_bool)"
      },
      "t_mapping(t_address,t_uint256)": {
        "encoding": "mapping",
        "key": "t_address",
        "label": "mapping(address => uint256)",
        "numberOfBytes": "32",
        "value": "t_uint256"
      },
      "t_mapping(t_uint256,t_address)": {
        "encoding": "mapping",
        "key": "t_uint256",
        "label": "mapping(uint256 => address)",
        "numberOfBytes": "32",
        "value": "t_address"
      },
      "t_mapping(t_uint256,t_int96)": {
        "encoding": "mapping",
        "key": "t_uint256",
        "label": "mapping(uint256 => int96)",
        "numberOfBytes": "32",
        "value": "t_int96"
      },
      "t_mapping(t_uint256,t_uint256)": {
        "encoding": "mapping",
        "key": "t_uint256",
        "label": "mapping(uint256 => uint256)",
        "numberOfBytes": "32",
        "value": "t_uint256"
      },
      "t_string_storage": {
        "encoding": "bytes",
        "label": "string",
        "numberOfBytes": "32"
      },
      "t_uint256": {
        "encoding": "inplace",
        "label": "uint256",
        "numberOfBytes": "32"
      }
    }
  }
}